{
  "_format": "hh-sol-artifact-1",
  "contractName": "GaiaProtocolGods",
  "sourceName": "contracts/GaiaProtocolGods.sol",
  "abi": [
    {
      "inputs": [
        {
          "internalType": "string",
          "name": "name_",
          "type": "string"
        },
        {
          "internalType": "string",
          "name": "symbol_",
          "type": "string"
        },
        {
          "internalType": "string",
          "name": "baseURI_",
          "type": "string"
        }
      ],
      "stateMutability": "nonpayable",
      "type": "constructor"
    },
    {
      "inputs": [],
      "name": "ApprovalCallerNotOwnerNorApproved",
      "type": "error"
    },
    {
      "inputs": [],
      "name": "ApprovalQueryForNonexistentToken",
      "type": "error"
    },
    {
      "inputs": [],
      "name": "BalanceQueryForZeroAddress",
      "type": "error"
    },
    {
      "inputs": [],
      "name": "MintERC2309QuantityExceedsLimit",
      "type": "error"
    },
    {
      "inputs": [],
      "name": "MintToZeroAddress",
      "type": "error"
    },
    {
      "inputs": [],
      "name": "MintZeroQuantity",
      "type": "error"
    },
    {
      "inputs": [],
      "name": "OwnerQueryForNonexistentToken",
      "type": "error"
    },
    {
      "inputs": [],
      "name": "OwnershipNotInitializedForExtraData",
      "type": "error"
    },
    {
      "inputs": [],
      "name": "PausedNow",
      "type": "error"
    },
    {
      "inputs": [],
      "name": "TransferCallerNotOwnerNorApproved",
      "type": "error"
    },
    {
      "inputs": [],
      "name": "TransferFromIncorrectOwner",
      "type": "error"
    },
    {
      "inputs": [],
      "name": "TransferToNonERC721ReceiverImplementer",
      "type": "error"
    },
    {
      "inputs": [],
      "name": "TransferToZeroAddress",
      "type": "error"
    },
    {
      "inputs": [],
      "name": "URIQueryForNonexistentToken",
      "type": "error"
    },
    {
      "anonymous": false,
      "inputs": [
        {
          "indexed": true,
          "internalType": "address",
          "name": "owner",
          "type": "address"
        },
        {
          "indexed": true,
          "internalType": "address",
          "name": "approved",
          "type": "address"
        },
        {
          "indexed": true,
          "internalType": "uint256",
          "name": "tokenId",
          "type": "uint256"
        }
      ],
      "name": "Approval",
      "type": "event"
    },
    {
      "anonymous": false,
      "inputs": [
        {
          "indexed": true,
          "internalType": "address",
          "name": "owner",
          "type": "address"
        },
        {
          "indexed": true,
          "internalType": "address",
          "name": "operator",
          "type": "address"
        },
        {
          "indexed": false,
          "internalType": "bool",
          "name": "approved",
          "type": "bool"
        }
      ],
      "name": "ApprovalForAll",
      "type": "event"
    },
    {
      "anonymous": false,
      "inputs": [],
      "name": "CompleteAirdrop",
      "type": "event"
    },
    {
      "anonymous": false,
      "inputs": [
        {
          "indexed": true,
          "internalType": "uint256",
          "name": "fromTokenId",
          "type": "uint256"
        },
        {
          "indexed": false,
          "internalType": "uint256",
          "name": "toTokenId",
          "type": "uint256"
        },
        {
          "indexed": true,
          "internalType": "address",
          "name": "from",
          "type": "address"
        },
        {
          "indexed": true,
          "internalType": "address",
          "name": "to",
          "type": "address"
        }
      ],
      "name": "ConsecutiveTransfer",
      "type": "event"
    },
    {
      "anonymous": false,
      "inputs": [
        {
          "indexed": true,
          "internalType": "address",
          "name": "previousOwner",
          "type": "address"
        },
        {
          "indexed": true,
          "internalType": "address",
          "name": "newOwner",
          "type": "address"
        }
      ],
      "name": "OwnershipTransferred",
      "type": "event"
    },
    {
      "anonymous": false,
      "inputs": [
        {
          "indexed": false,
          "internalType": "address",
          "name": "account",
          "type": "address"
        }
      ],
      "name": "Paused",
      "type": "event"
    },
    {
      "anonymous": false,
      "inputs": [
        {
          "indexed": false,
          "internalType": "string",
          "name": "baseURI_",
          "type": "string"
        }
      ],
      "name": "SetBaseURI",
      "type": "event"
    },
    {
      "anonymous": false,
      "inputs": [
        {
          "indexed": true,
          "internalType": "address",
          "name": "from",
          "type": "address"
        },
        {
          "indexed": true,
          "internalType": "address",
          "name": "to",
          "type": "address"
        },
        {
          "indexed": true,
          "internalType": "uint256",
          "name": "tokenId",
          "type": "uint256"
        }
      ],
      "name": "Transfer",
      "type": "event"
    },
    {
      "anonymous": false,
      "inputs": [
        {
          "indexed": false,
          "internalType": "address",
          "name": "account",
          "type": "address"
        }
      ],
      "name": "Unpaused",
      "type": "event"
    },
    {
      "inputs": [
        {
          "internalType": "address[]",
          "name": "recipients",
          "type": "address[]"
        },
        {
          "internalType": "uint256[]",
          "name": "amounts",
          "type": "uint256[]"
        }
      ],
      "name": "airdrop",
      "outputs": [],
      "stateMutability": "nonpayable",
      "type": "function"
    },
    {
      "inputs": [],
      "name": "airdropCompleted",
      "outputs": [
        {
          "internalType": "bool",
          "name": "",
          "type": "bool"
        }
      ],
      "stateMutability": "view",
      "type": "function"
    },
    {
      "inputs": [
        {
          "internalType": "address",
          "name": "to",
          "type": "address"
        },
        {
          "internalType": "uint256",
          "name": "tokenId",
          "type": "uint256"
        }
      ],
      "name": "approve",
      "outputs": [],
      "stateMutability": "payable",
      "type": "function"
    },
    {
      "inputs": [
        {
          "internalType": "address",
          "name": "owner",
          "type": "address"
        }
      ],
      "name": "balanceOf",
      "outputs": [
        {
          "internalType": "uint256",
          "name": "",
          "type": "uint256"
        }
      ],
      "stateMutability": "view",
      "type": "function"
    },
    {
      "inputs": [
        {
          "internalType": "address",
          "name": "from",
          "type": "address"
        },
        {
          "internalType": "address",
          "name": "to",
          "type": "address"
        },
        {
          "internalType": "uint256[]",
          "name": "tokenIds",
          "type": "uint256[]"
        }
      ],
      "name": "batchTransferFrom",
      "outputs": [],
      "stateMutability": "nonpayable",
      "type": "function"
    },
    {
      "inputs": [],
      "name": "completeAirdrop",
      "outputs": [],
      "stateMutability": "nonpayable",
      "type": "function"
    },
    {
      "inputs": [
        {
          "internalType": "uint256",
          "name": "tokenId",
          "type": "uint256"
        }
      ],
      "name": "exists",
      "outputs": [
        {
          "internalType": "bool",
          "name": "",
          "type": "bool"
        }
      ],
      "stateMutability": "view",
      "type": "function"
    },
    {
      "inputs": [
        {
          "internalType": "uint256",
          "name": "tokenId",
          "type": "uint256"
        }
      ],
      "name": "getApproved",
      "outputs": [
        {
          "internalType": "address",
          "name": "",
          "type": "address"
        }
      ],
      "stateMutability": "view",
      "type": "function"
    },
    {
      "inputs": [
        {
          "internalType": "address",
          "name": "owner",
          "type": "address"
        },
        {
          "internalType": "address",
          "name": "operator",
          "type": "address"
        }
      ],
      "name": "isApprovedForAll",
      "outputs": [
        {
          "internalType": "bool",
          "name": "",
          "type": "bool"
        }
      ],
      "stateMutability": "view",
      "type": "function"
    },
    {
      "inputs": [],
      "name": "name",
      "outputs": [
        {
          "internalType": "string",
          "name": "",
          "type": "string"
        }
      ],
      "stateMutability": "view",
      "type": "function"
    },
    {
      "inputs": [],
      "name": "owner",
      "outputs": [
        {
          "internalType": "address",
          "name": "",
          "type": "address"
        }
      ],
      "stateMutability": "view",
      "type": "function"
    },
    {
      "inputs": [
        {
          "internalType": "uint256",
          "name": "tokenId",
          "type": "uint256"
        }
      ],
      "name": "ownerOf",
      "outputs": [
        {
          "internalType": "address",
          "name": "",
          "type": "address"
        }
      ],
      "stateMutability": "view",
      "type": "function"
    },
    {
      "inputs": [],
      "name": "paused",
      "outputs": [
        {
          "internalType": "bool",
          "name": "",
          "type": "bool"
        }
      ],
      "stateMutability": "view",
      "type": "function"
    },
    {
      "inputs": [],
      "name": "renounceOwnership",
      "outputs": [],
      "stateMutability": "nonpayable",
      "type": "function"
    },
    {
      "inputs": [
        {
          "internalType": "address",
          "name": "from",
          "type": "address"
        },
        {
          "internalType": "address",
          "name": "to",
          "type": "address"
        },
        {
          "internalType": "uint256",
          "name": "tokenId",
          "type": "uint256"
        }
      ],
      "name": "safeTransferFrom",
      "outputs": [],
      "stateMutability": "payable",
      "type": "function"
    },
    {
      "inputs": [
        {
          "internalType": "address",
          "name": "from",
          "type": "address"
        },
        {
          "internalType": "address",
          "name": "to",
          "type": "address"
        },
        {
          "internalType": "uint256",
          "name": "tokenId",
          "type": "uint256"
        },
        {
          "internalType": "bytes",
          "name": "_data",
          "type": "bytes"
        }
      ],
      "name": "safeTransferFrom",
      "outputs": [],
      "stateMutability": "payable",
      "type": "function"
    },
    {
      "inputs": [
        {
          "internalType": "address",
          "name": "operator",
          "type": "address"
        },
        {
          "internalType": "bool",
          "name": "approved",
          "type": "bool"
        }
      ],
      "name": "setApprovalForAll",
      "outputs": [],
      "stateMutability": "nonpayable",
      "type": "function"
    },
    {
      "inputs": [
        {
          "internalType": "string",
          "name": "baseURI_",
          "type": "string"
        }
      ],
      "name": "setBaseURI",
      "outputs": [],
      "stateMutability": "nonpayable",
      "type": "function"
    },
    {
      "inputs": [
        {
          "internalType": "bool",
          "name": "status",
          "type": "bool"
        }
      ],
      "name": "setPause",
      "outputs": [],
      "stateMutability": "nonpayable",
      "type": "function"
    },
    {
      "inputs": [
        {
          "internalType": "bytes4",
          "name": "interfaceId",
          "type": "bytes4"
        }
      ],
      "name": "supportsInterface",
      "outputs": [
        {
          "internalType": "bool",
          "name": "",
          "type": "bool"
        }
      ],
      "stateMutability": "view",
      "type": "function"
    },
    {
      "inputs": [],
      "name": "symbol",
      "outputs": [
        {
          "internalType": "string",
          "name": "",
          "type": "string"
        }
      ],
      "stateMutability": "view",
      "type": "function"
    },
    {
      "inputs": [
        {
          "internalType": "uint256",
          "name": "tokenId",
          "type": "uint256"
        }
      ],
      "name": "tokenURI",
      "outputs": [
        {
          "internalType": "string",
          "name": "",
          "type": "string"
        }
      ],
      "stateMutability": "view",
      "type": "function"
    },
    {
      "inputs": [],
      "name": "totalSupply",
      "outputs": [
        {
          "internalType": "uint256",
          "name": "",
          "type": "uint256"
        }
      ],
      "stateMutability": "view",
      "type": "function"
    },
    {
      "inputs": [
        {
          "internalType": "address",
          "name": "from",
          "type": "address"
        },
        {
          "internalType": "address",
          "name": "to",
          "type": "address"
        },
        {
          "internalType": "uint256",
          "name": "tokenId",
          "type": "uint256"
        }
      ],
      "name": "transferFrom",
      "outputs": [],
      "stateMutability": "payable",
      "type": "function"
    },
    {
      "inputs": [
        {
          "internalType": "address",
          "name": "newOwner",
          "type": "address"
        }
      ],
      "name": "transferOwnership",
      "outputs": [],
      "stateMutability": "nonpayable",
      "type": "function"
    }
  ],
  "bytecode": "0x60806040523480156200001157600080fd5b5060405162001a6238038062001a628339810160408190526200003491620001a6565b6000805460ff1916905582826200004b3362000088565b6003620000598382620002c6565b506004620000688282620002c6565b505060006001555060096200007e8282620002c6565b5050505062000392565b600080546001600160a01b03838116610100818102610100600160a81b0319851617855560405193049190911692909183917f8be0079c531659141344cd1fd0a4f28419497f9722a3daafe3b4186f6b6457e091a35050565b634e487b7160e01b600052604160045260246000fd5b600082601f8301126200010957600080fd5b81516001600160401b0380821115620001265762000126620000e1565b604051601f8301601f19908116603f01168101908282118183101715620001515762000151620000e1565b816040528381526020925086838588010111156200016e57600080fd5b600091505b8382101562000192578582018301518183018401529082019062000173565b600093810190920192909252949350505050565b600080600060608486031215620001bc57600080fd5b83516001600160401b0380821115620001d457600080fd5b620001e287838801620000f7565b94506020860151915080821115620001f957600080fd5b6200020787838801620000f7565b935060408601519150808211156200021e57600080fd5b506200022d86828701620000f7565b9150509250925092565b600181811c908216806200024c57607f821691505b6020821081036200026d57634e487b7160e01b600052602260045260246000fd5b50919050565b601f821115620002c157600081815260208120601f850160051c810160208610156200029c5750805b601f850160051c820191505b81811015620002bd57828155600101620002a8565b5050505b505050565b81516001600160401b03811115620002e257620002e2620000e1565b620002fa81620002f3845462000237565b8462000273565b602080601f831160018114620003325760008415620003195750858301515b600019600386901b1c1916600185901b178555620002bd565b600085815260208120601f198616915b82811015620003635788860151825594840194600190910190840162000342565b5085821015620003825787850151600019600388901b60f8161c191681555b5050505050600190811b01905550565b6116c080620003a26000396000f3fe6080604052600436106101665760003560e01c806367243482116100d1578063a22cb4651161008a578063c87b56dd11610064578063c87b56dd146103df578063e985e9c5146103ff578063f2fde38b14610448578063f3993d111461046857600080fd5b8063a22cb4651461038c578063b88d4fde146103ac578063bedb86fb146103bf57600080fd5b806367243482146102e557806370a0823114610305578063715018a6146103255780638da5cb5b1461033a57806392902fa01461035d57806395d89b411461037757600080fd5b8063318bdf8211610123578063318bdf821461024557806342842e0e1461025a5780634f558e791461026d57806355f804b31461028d5780635c975abb146102ad5780636352211e146102c557600080fd5b806301ffc9a71461016b57806306fdde03146101a0578063081812fc146101c2578063095ea7b3146101fa57806318160ddd1461020f57806323b872dd14610232575b600080fd5b34801561017757600080fd5b5061018b610186366004611051565b610488565b60405190151581526020015b60405180910390f35b3480156101ac57600080fd5b506101b56104da565b60405161019791906110be565b3480156101ce57600080fd5b506101e26101dd3660046110d1565b61056c565b6040516001600160a01b039091168152602001610197565b61020d610208366004611101565b6105a7565b005b34801561021b57600080fd5b506102246105b7565b604051908152602001610197565b61020d61024036600461112b565b6105c7565b34801561025157600080fd5b5061020d610739565b61020d61026836600461112b565b610779565b34801561027957600080fd5b5061018b6102883660046110d1565b610799565b34801561029957600080fd5b5061020d6102a8366004611167565b6107a4565b3480156102b957600080fd5b5060005460ff1661018b565b3480156102d157600080fd5b506101e26102e03660046110d1565b6107f7565b3480156102f157600080fd5b5061020d610300366004611225565b610802565b34801561031157600080fd5b50610224610320366004611291565b610896565b34801561033157600080fd5b5061020d6108dc565b34801561034657600080fd5b5060005461010090046001600160a01b03166101e2565b34801561036957600080fd5b50600a5461018b9060ff1681565b34801561038357600080fd5b506101b56108f0565b34801561039857600080fd5b5061020d6103a73660046112bc565b6108ff565b61020d6103ba366004611305565b61096b565b3480156103cb57600080fd5b5061020d6103da3660046113e1565b6109ac565b3480156103eb57600080fd5b506101b56103fa3660046110d1565b6109cd565b34801561040b57600080fd5b5061018b61041a3660046113fc565b6001600160a01b03918216600090815260086020908152604080832093909416825291909152205460ff1690565b34801561045457600080fd5b5061020d610463366004611291565b610a48565b34801561047457600080fd5b5061020d610483366004611426565b610ac3565b60006301ffc9a760e01b6001600160e01b0319831614806104b957506380ac58cd60e01b6001600160e01b03198316145b806104d45750635b5e139f60e01b6001600160e01b03198316145b92915050565b6060600380546104e99061147b565b80601f01602080910402602001604051908101604052809291908181526020018280546105159061147b565b80156105625780601f1061053757610100808354040283529160200191610562565b820191906000526020600020905b81548152906001019060200180831161054557829003601f168201915b5050505050905090565b600061057782610b00565b61058b5761058b6333d1c03960e21b610b28565b506000908152600760205260409020546001600160a01b031690565b6105b382826001610b32565b5050565b60006105c260015490565b905090565b60006105d282610bd5565b6001600160a01b0394851694909150811684146105f8576105f862a1148160e81b610b28565b60008281526007602052604090208054338082146001600160a01b0388169091141761063c57610628863361041a565b61063c5761063c632ce44b5f60e11b610b28565b6106498686866001610c44565b801561065457600082555b6001600160a01b038681166000908152600660205260408082208054600019019055918716808252919020805460010190554260a01b17600160e11b17600085815260056020526040812091909155600160e11b841690036106e6576001840160008181526005602052604081205490036106e45760015481146106e45760008181526005602052604090208490555b505b6001600160a01b0385168481887fddf252ad1be2c89b69c2b068fc378daa952ba7f163c4a11628f55a4df523b3ef600080a48060000361073057610730633a954ecd60e21b610b28565b50505050505050565b610741610c5f565b600a805460ff191660011790556040517fdf9ecff288d2883e60e44b1c1af584a665033535f0a1dc64e6a4d93b28a882b590600090a1565b6107948383836040518060200160405280600081525061096b565b505050565b60006104d482610b00565b6107ac610c5f565b60096107b98284836114fb565b507f23c8c9488efebfd474e85a7956de6f39b17c7ab88502d42a623db2d8e382bbaa82826040516107eb9291906115bc565b60405180910390a15050565b60006104d482610bd5565b61080a610c5f565b600a5460ff161561081a57600080fd5b8281811461082757600080fd5b60005b8181101561088e576000868683818110610846576108466115eb565b905060200201602081019061085b9190611291565b90506000858584818110610871576108716115eb565b9050602002013590506108848282610cbf565b505060010161082a565b505050505050565b60006001600160a01b0382166108b6576108b66323d3ad8160e21b610b28565b506001600160a01b031660009081526006602052604090205467ffffffffffffffff1690565b6108e4610c5f565b6108ee6000610d8b565b565b6060600480546104e99061147b565b3360008181526008602090815260408083206001600160a01b03871680855290835292819020805460ff191686151590811790915590519081529192917f17307eab39ab6107e8899845ad3d59bd9653f200f220920489ca2b5937696c31910160405180910390a35050565b6109768484846105c7565b6001600160a01b0383163b156109a65761099284848484610de4565b6109a6576109a66368d2bf6b60e11b610b28565b50505050565b6109b4610c5f565b80156109c5576109c2610ec6565b50565b6109c2610f20565b60606109d882610b00565b6109ec576109ec630a14c4b560e41b610b28565b60006109f6610f59565b90508051600003610a165760405180602001604052806000815250610a41565b80610a2084610f68565b604051602001610a31929190611601565b6040516020818303038152906040525b9392505050565b610a50610c5f565b6001600160a01b038116610aba5760405162461bcd60e51b815260206004820152602660248201527f4f776e61626c653a206e6577206f776e657220697320746865207a65726f206160448201526564647265737360d01b60648201526084015b60405180910390fd5b6109c281610d8b565b8060005b8181101561088e576000848483818110610ae357610ae36115eb565b905060200201359050610af78787836105c7565b50600101610ac7565b6000600154821080156104d4575050600090815260056020526040902054600160e01b161590565b8060005260046000fd5b6000610b3d836107f7565b9050818015610b555750336001600160a01b03821614155b15610b7857610b64813361041a565b610b7857610b786367d9dca160e11b610b28565b60008381526007602052604080822080546001600160a01b0319166001600160a01b0388811691821790925591518693918516917f8c5be1e5ebec7d5bd14f71427d1e84f3dd0314c0f7b2291e5b200ac8c7c3b92591a450505050565b60008181526005602052604081205490600160e01b82169003610c345780600003610c2f576001548210610c1357610c13636f96cda160e11b610b28565b5b50600019016000818152600560205260409020548015610c14575b919050565b610c2f636f96cda160e11b610b28565b60005460ff16156109a6576109a663b6357f4560e01b610b28565b6000546001600160a01b036101009091041633146108ee5760405162461bcd60e51b815260206004820181905260248201527f4f776e61626c653a2063616c6c6572206973206e6f7420746865206f776e65726044820152606401610ab1565b6001546000829003610cdb57610cdb63b562e8dd60e01b610b28565b610ce86000848385610c44565b60008181526005602090815260408083206001600160a01b0387164260a01b6001881460e11b17811790915580845260069092528220805468010000000000000001860201905590819003610d4657610d46622e076360e81b610b28565b818301825b808360007fddf252ad1be2c89b69c2b068fc378daa952ba7f163c4a11628f55a4df523b3ef600080a4818160010191508103610d4b575060015550505050565b600080546001600160a01b03838116610100818102610100600160a81b0319851617855560405193049190911692909183917f8be0079c531659141344cd1fd0a4f28419497f9722a3daafe3b4186f6b6457e091a35050565b604051630a85bd0160e11b81526000906001600160a01b0385169063150b7a0290610e19903390899088908890600401611630565b6020604051808303816000875af1925050508015610e54575060408051601f3d908101601f19168201909252610e519181019061166d565b60015b610ea9573d808015610e82576040519150601f19603f3d011682016040523d82523d6000602084013e610e87565b606091505b508051600003610ea157610ea16368d2bf6b60e11b610b28565b805181602001fd5b6001600160e01b031916630a85bd0160e11b149050949350505050565b610ece610fac565b6000805460ff191660011790557f62e78cea01bee320cd4e420270b5ea74000d11b0c9f74754ebdbfc544b05a258610f033390565b6040516001600160a01b03909116815260200160405180910390a1565b610f28610ff2565b6000805460ff191690557f5db9ee0a495bf2e6ff9c91a7834c1ba4fdd244a5e8aa4e537bd38aeae4b073aa33610f03565b6060600980546104e99061147b565b606060a06040510180604052602081039150506000815280825b600183039250600a81066030018353600a900480610f825750819003601f19909101908152919050565b60005460ff16156108ee5760405162461bcd60e51b815260206004820152601060248201526f14185d5cd8589b194e881c185d5cd95960821b6044820152606401610ab1565b60005460ff166108ee5760405162461bcd60e51b815260206004820152601460248201527314185d5cd8589b194e881b9bdd081c185d5cd95960621b6044820152606401610ab1565b6001600160e01b0319811681146109c257600080fd5b60006020828403121561106357600080fd5b8135610a418161103b565b60005b83811015611089578181015183820152602001611071565b50506000910152565b600081518084526110aa81602086016020860161106e565b601f01601f19169290920160200192915050565b602081526000610a416020830184611092565b6000602082840312156110e357600080fd5b5035919050565b80356001600160a01b0381168114610c2f57600080fd5b6000806040838503121561111457600080fd5b61111d836110ea565b946020939093013593505050565b60008060006060848603121561114057600080fd5b611149846110ea565b9250611157602085016110ea565b9150604084013590509250925092565b6000806020838503121561117a57600080fd5b823567ffffffffffffffff8082111561119257600080fd5b818501915085601f8301126111a657600080fd5b8135818111156111b557600080fd5b8660208285010111156111c757600080fd5b60209290920196919550909350505050565b60008083601f8401126111eb57600080fd5b50813567ffffffffffffffff81111561120357600080fd5b6020830191508360208260051b850101111561121e57600080fd5b9250929050565b6000806000806040858703121561123b57600080fd5b843567ffffffffffffffff8082111561125357600080fd5b61125f888389016111d9565b9096509450602087013591508082111561127857600080fd5b50611285878288016111d9565b95989497509550505050565b6000602082840312156112a357600080fd5b610a41826110ea565b80358015158114610c2f57600080fd5b600080604083850312156112cf57600080fd5b6112d8836110ea565b91506112e6602084016112ac565b90509250929050565b634e487b7160e01b600052604160045260246000fd5b6000806000806080858703121561131b57600080fd5b611324856110ea565b9350611332602086016110ea565b925060408501359150606085013567ffffffffffffffff8082111561135657600080fd5b818701915087601f83011261136a57600080fd5b81358181111561137c5761137c6112ef565b604051601f8201601f19908116603f011681019083821181831017156113a4576113a46112ef565b816040528281528a60208487010111156113bd57600080fd5b82602086016020830137600060208483010152809550505050505092959194509250565b6000602082840312156113f357600080fd5b610a41826112ac565b6000806040838503121561140f57600080fd5b611418836110ea565b91506112e6602084016110ea565b6000806000806060858703121561143c57600080fd5b611445856110ea565b9350611453602086016110ea565b9250604085013567ffffffffffffffff81111561146f57600080fd5b611285878288016111d9565b600181811c9082168061148f57607f821691505b6020821081036114af57634e487b7160e01b600052602260045260246000fd5b50919050565b601f82111561079457600081815260208120601f850160051c810160208610156114dc5750805b601f850160051c820191505b8181101561088e578281556001016114e8565b67ffffffffffffffff831115611513576115136112ef565b61152783611521835461147b565b836114b5565b6000601f84116001811461155b57600085156115435750838201355b600019600387901b1c1916600186901b1783556115b5565b600083815260209020601f19861690835b8281101561158c578685013582556020948501946001909201910161156c565b50868210156115a95760001960f88860031b161c19848701351681555b505060018560011b0183555b5050505050565b60208152816020820152818360408301376000818301604090810191909152601f909201601f19160101919050565b634e487b7160e01b600052603260045260246000fd5b6000835161161381846020880161106e565b83519083019061162781836020880161106e565b01949350505050565b6001600160a01b038581168252841660208201526040810183905260806060820181905260009061166390830184611092565b9695505050505050565b60006020828403121561167f57600080fd5b8151610a418161103b56fea264697066735822122094ee32a5c3f594b9794af34bd73c3df088753cc57d44955d1723892f4953841164736f6c63430008110033",
  "linkReferences": {},
  "deployedLinkReferences": {}
}